:102000000080002001610000E9600000E96000003C
:1020100000000000000000000000000000000000C0
:10202000000000000000000000000000E960000067
:102030000000000000000000E960000055610000A1
:10204000E9600000E9600000E9600000E96000006C
:1020500061640000E9600000E9600000ED600000DC
:10206000E960000035600000E9600000E960000000
:10207000E9600000E960000045600000E9600000E0
:10208000E9600000E9600000E9600000E96000002C
:1020900000000000E9600000E9600000E960000065
:1020A000E9600000E9600000E9600000E96000000C
:1020B0000000000010B5064C2378002B07D1054B1B
:1020C000002B02D0044800E000BF0123237010BDA4
:1020D000B00100200000000034DA000008B5084B11
:1020E000002B03D00748084900E000BF07480368F9
:1020F000002B03D0064B002B00D0984708BDC046EC
:102100000000000034DA0000B4010020A401002027
:1021100000000000F8B5061C101C0F1C151C07F071
:10212000E3FF2A1C391C041C07F0F2FF311C034892
:1021300004F01EFC201C07F0E1FFF8BDC40C0020D9
:1021400010B5094C094AA54401A80C1C084907F020
:10215000DFFF201C074903F02BFD201C01A903F021
:10216000DFFC054B9D4410BD48F5FFFFB30A00009E
:1021700002C30000F8C20000B80A00001FB50C1C22
:1021800001A8074904F063FF201C064903F010FD75
:1021900001A9201C04F0CAFB01A804F0D9FE1FBD50
:1021A000D2D10000F8C2000037B51B4C1B49201CDF
:1021B00004F0C4FB1A4D281C00F0FBFA011C201C83
:1021C00004F0D6FB281C00F0F2FA011C684604F06B
:1021D00025FB201C134904F0B1FB6946201C04F0C8
:1021E000D1FB281C00F0F0FA0F49051C201C04F05C
:1021F000A5FB0A22291C201C04F0F5FB201C0B491E
:1022000004F0B6FB201C0A4904F098FB201C694628
:1022100004F0B8FB37BDC046C40C002061CF0000FD
:10222000A8090020F2CD0000FFCD000017CE00006D
:102230001CCE000080B50A4F0A49BD446846002202
:1022400000F036FF684600F0AAFC002803D00648DC
:10225000694603F007FEB923DB009D4480BDC046FC
:1022600038FAFFFFD4010020A402002073B5002338
:102270000093191C1A1C164804F0C2FA154803F002
:1022800095FD5021144800F0B9FE144E1449301C3D
:1022900004F0A5FE134D144C291C221C301C07F021
:1022A000E5FE124E1249301C04F099FE291C221C36
:1022B000301C07F0DBFE0F4C201C00F017FD0094D3
:1022C0000D490E4A0E4B0F4803F08EFE73BDC046FB
:1022D000CC010020A4020020D4010020900900209D
:1022E00069CE0000516F000000000020E8010020CE
:1022F00078CE0000C8030020130000205B07000018
:1023000015210000F4010020F0B5394C96218DB064
:10231000201C890104F03AFF201C04F039FF00283A
:10232000FAD0344D022301260093281C08210722ED
:10233000042300F083F8C021A8220023009602A8FD
:1023400004F05EFAC021A8220023009604A804F03D
:1023500057FAFF2100230A1C009306A80B1C04F067
:102360004FFA9F230093C021A822331C08A804F031
:1023700047FA214B281C0A93099B0AA90B9300F0EA
:10238000F1F9281C00F046FAFF2804D1201C1B4953
:1023900004F0EEFAFEE71A4E201C3368032B11D02E
:1023A000184904F0CBFA184F201C391C04F0E0FA4D
:1023B000281C391C154A00F019F93060144803F044
:1023C000DDFEE8E7134904F0D3FA134800F06AFE93
:1023D000124C1349201C134A03F04CFD201C1249D7
:1023E000124A03F047FDFFF7DFFE0DB0F0BDC04617
:1023F000C40C0020A809002050D6000087CE0000A1
:102400009C0900209FCE0000260000200400002030
:1024100088130000BFCE0000D4010020A4020020D9
:1024200050CE000041210000D1CE00007D210000EF
:10243000014B19617047C046A809002010B5064C31
:1024400002A82170054900780A70054A40B213704D
:10245000044B187010BDC046380000203500002025
:10246000360000203700002030B587B0041C00F093
:10247000AFFE304B6846009301F032FB051E07D0DB
:10248000031C0D3304D00021062001F0F6F94AE0C8
:1024900002F0BAFC02F080FF2748284902F0D0FC85
:1024A00000210123201CE367E3601C226176216088
:1024B0006160A16021616161603007F04BFE204BDB
:1024C0001A68204B9A4202D91F4801F0EAF901210B
:1024D000042001F0D2F90121052001F0CEF90121FB
:1024E000062001F0CAF90121042001F0B2F901210E
:1024F000052001F0AEF90121062001F0AAF9012022
:10250000011C01F0BAF90121022001F0B6F9012104
:10251000032001F0B2F90120011C01F09AF9022018
:10252000012101F096F90121032001F092F9281C04
:1025300007B030BD75280000DD53000031240000D5
:10254000780A00204F130000FF030000F7B51E1C9F
:10255000C36F041C0D1C171C002B01D1FFF784FF57
:10256000E368002B03D0002323606360A360281C72
:1025700007F0E8FEFF23C1B20093281C3A1C331C6D
:1025800001F082FB002802DA042060762AE00023B2
:1025900063760123237603F0EBFD071C667E072399
:1025A0001E4005D103F0E4FD0F4BC01B984215D926
:1025B000627E0323134000D12376261C3D36002182
:1025C0002122301C07F0C6FD281C07F0BBFE291C89
:1025D000021C301C07F09CFD607E03E0301C01F003
:1025E000B7FADBE7FEBDC0465FEA000008B5131C82
:1025F0000222FFF7ABFF08BDF0B5171CC26FA5B0F4
:10260000041C01911D1C002A01D1FFF72DFF882217
:10261000002102A807F09EFD019902A807F08AFE9A
:102620006B460A33DD7701253D331D70002612AB62
:1026300049221E706A44C02313706B464A33A82295
:102640001A705D7002A813AB391C2A1C1D7001F0B2
:102650005BFBB04202DA0B20607625E00A23271CE0
:1026600063763D3702232376311C2122381C07F084
:1026700071FD019807F066FE0199021C381C07F0F5
:1026800047FD69460422201C493100F06BFE074BD0
:10269000311C636023680420A36001F0EEF8281C5D
:1026A000311C01F0EAF8607E25B0F0BDFFFFFF00AD
:1026B000F0B51E1CC36F87B0041C0D1C171C002B2B
:1026C00001D1FFF7D1FE0C9B7F685B6876686D686F
:1026D0000020E060049303970296019501F0EAFA66
:1026E00001A801F0DAFA019B2360049B6360029B5E
:1026F000A36007B0F0BD000030B50D4C8BB0496849
:1027000002940494526806945B6808AC051C03911B
:10271000201C00210592079304F080F80094281CE7
:1027200002A904AA06ABFFF7C3FF0BB030BDC04639
:1027300050D6000010B5496886B0094B5268041C99
:10274000019104A8002100930293039204F066F81B
:10275000201C694602AA04ABFFF7CEFF06B010BDED
:1027600050D600001FB54968064B041C019102A811
:102770000021009304F052F8201C694602AAFFF7DA
:10278000D9FF1FBD50D6000013B5081C0C1C01F06A
:10279000ABFA684601F0A8FA002300A8C1184979ED
:1027A0005A42013BA1549A1DF7D1201C16BD006866
:1027B0007047437E032B03D0DA1F0023012A01D880
:1027C000031C3D33181C704770B5041C0025002005
:1027D00001F0BEF9256101F07BFAA8420CDB03F0A1
:1027E000C7FC061C2569002D08D103F0C1FC084B6D
:1027F000801B984206D901E0281C07E000232069CD
:10280000236103E0281C01F0A3F9EBE770BDC0468B
:10281000E7030000C36F10B5041C002B01D1FFF7C4
:1028200023FE002001F094F9607E10BD30B587B022
:102830000D1C6946041CFFF7A7FF69464A780B7810
:1028400002A8074907F048FD02A9064A2B1C201CD4
:10285000FFF7D2FE201CFFF7DDFF07B030BDC046FA
:1028600077CF000087CF000008B50121FFF7DEFF1A
:1028700008BD0000F0B50C1C85B0132800D1ABE0FA
:1028800011D8062800D1D9E007D8042800D0F3E0F9
:1028900000228A56794B1A61EEE0092868D0112887
:1028A00000D193E0E8E02A2809D003D81B2800D102
:1028B000D9E0E1E02C2809D0322845D0DCE0002323
:1028C000CB560622002B00D084E0D5E00B78012BFC
:1028D00011D16A4B1A7E012A07D1D968002900D08C
:1028E000CAE003225A7604202BE0032A00D0C3E07A
:1028F00008225A76C0E0002B00D0BDE05F4A117E6E
:10290000141C012913D1E06806226276002802D047
:1029100023606360A36000256319186E002802D04D
:1029200003685B6A984704351C2DF5D103E0032941
:1029300001D1072353760121042000F09EFF0120DE
:10294000011C00F09AFF97E04C4B1D7E012D00D03A
:1029500092E00A68C8684C681A6058600322002137
:1029600004209C605A7600F088FF281C0021E8E7CC
:102970000B1C63331E78414D002E21D12F1C3D3797
:10298000311C2122381C07F0E5FB201C07F0DAFC83
:10299000211C021C381C07F0BBFB0123201C2B76DA
:1029A0002E606E60AE6007F0CDFC231CC1B26233B6
:1029B000FF201A780090413B201C01F065F95BE094
:1029C0000B23281C6B76FFF74FFF55E00B78002B8D
:1029D00052D00222294B8CE70D1C0A35281C039586
:1029E00007F0B0FC254D071C2E1C1A36301C0021A8
:1029F000212207F0AFFBBBB2002B04D01A1C301C05
:102A0000039907F085FB6869052300280DD1012390
:102A1000E3562B61A2782B1C3B331A70E2782B1CF7
:102A20003C331A7002236B7626E0E218117968694C
:102A30000522D21A8154013BF7D2E8E70F4B5A69BD
:102A4000002A0AD02218253211785D690622121A4E
:102A50000138A9540028F5D15861181C211C3D30BB
:102A600007F068FC08E0054D2869002804D008221A
:102A700007F04EFB00232B6105B0F0BDA809002034
:102A8000F7B5061C101C0F1C019203F0CFFE0124A9
:102A9000051E39D1291C052000F0EFFE0220291C5B
:102AA00000F0EBFE3561381C02F0D2FB002809DA99
:102AB000211C052000F0E1FE211C022000F0DDFEBB
:102AC0002C1C21E003F054FB051C3469002C05D1BB
:102AD00003F04EFB0D4B401B984211D901210520FC
:102AE00000F0CBFE0121022000F0C7FE3169002476
:102AF000A14209D0019803F0BFFE3461012403E034
:102B0000201C01F025F8E0E7201CFEBD1F4E000050
:102B100013B50024221C231C0094211C044803F03C
:102B20006FFE044BFF221C765A76DC6713BDC0464D
:102B3000A0090020A809002013B502686B46D971CE
:102B400007335468191C0122A04716BD13B503684A
:102B50006C4607341B6A211C01229847431C00D095
:102B6000207816BD036810B59B68041C98470028A0
:102B700004D0E369E4180134E07F01E00120404221
:102B800010BD10B5041C2368201C9B6898470028C2
:102B900004D02368201CDB689847F4E710BD007D53
:102BA00040B20130431E9841C0B2704710B5041CBA
:102BB000002000F0CDFF1423E356013303D0A069B9
:102BC000E369C01A00E0002010BD0000F8B50368FA
:102BD000041C9B680E1C171C984785B2002D26D03C
:102BE000AF4200D2BDB2331C991BE269A94207D2A1
:102BF000511CA218E1610132D27F1A700133F3E750
:102C0000A3699A4211D12269022300269A432261C4
:102C1000A661E6611420211C20562031054A331C90
:102C200002F064FA301C00F093FF281C01E0012040
:102C30004042F8BDA605000010B5041C002000F0BD
:102C400087FF2368201C9B6898470123002801D137
:102C500022691340181C10BD10B5041C1420205606
:102C6000002809DB02F0AEFB1420205602F07EFAA9
:102C7000FF2323750023236110BD70B5037D041C61
:102C80000E1C151C7F2B01D8002A02D10123636082
:102C90001FE00021052000F0F0FD0220002100F0DF
:102CA000ECFD002000F054FF14202056AAB2311C85
:102CB000002302F0D1F900280DDA0E30F1D0012501
:102CC000291C6560052000F0D8FD0220291C00F0B9
:102CD000D4FD002008E00121052000F0CEFD0220F7
:102CE000012100F0CAFD281C70BD0000FA229200EC
:102CF0008260054A002308320260FF2243600275A9
:102D000003618361C361704790CF0000002337B532
:102D10004360FA239B0083601A4B041C0833036052
:102D2000C8B220750123002A01D012061343236183
:102D30000023A361E36114495A18156EA54201D11D
:102D40000025156604331C2BF5D140B2031C183343
:102D50009B00251CCC502035211C221C231C0095D7
:102D6000103118321C3302F021FB1420291C074AB1
:102D70000023205602F0BAF9002000F0E9FE201CE2
:102D80003EBDC04690CF0000A8090020A605000067
:102D900037B50B7D041C03758A690869CB6920610E
:102DA000A261E3619A4206D91D1C20356019D21A2E
:102DB000491907F0ADF9002313495A18106EA042C3
:102DC00001D10020106604331C2BF5D114202056AD
:102DD000002815DB031C18339B00251CCC50203524
:102DE000211C221C231C103118321C33009502F0C8
:102DF000DDFA14202056291C044A002302F076F93B
:102E0000002000F0A5FE37BDA8090020A60500009F
:102E1000002310B54360FA239B008360034B041C1E
:102E200008330360FFF7B4FF201C10BD90CF0000F3
:102E300010B5041CFFF7ACFF201C10BDF0B54968AD
:102E400089B004AD0026022752BA041C6A8069606A
:102E500006618661C6610121381C1A1C03932F800C
:102E600001F0F8FF02902075B04229DB039BDB07DD
:102E70000CD50E9BB34209D0181C00F084FA391C03
:102E800000903A1C02980E9B02F0FAF9231C2033A2
:102E90001420211C221C2056009310311832043BB0
:102EA00002F084FA14202056291C102202F09CF80B
:102EB000002807DA1420205602F058F9FF23237562
:102EC00000201DE003F054F9061C236901251D4074
:102ED00005D103F04DF90B4B801B98420CD92569A5
:102EE000012314201D402056002DE5D01830064A3D
:102EF00080008450181C03E0281C00F029FEE4E741
:102F000009B0F0BD1F4E0000A80900201FB5054BF9
:102F10004968029300230391009302A9FFF78EFFF3
:102F200005B000BD50D60000F0B587B00C1C071CE2
:102F300002A8161C1D1C03F05BFC0A48211C02AAF7
:102F4000FFF79EFD00280AD0074B00940493039BD3
:102F5000381C059304A9321C2B1CFFF76FFF07B028
:102F6000F0BDC046A809002050D6000008B50023D7
:102F7000FFF7DAFF08BD000007B500230093034800
:102F8000191C1A1C03F03CFC07BDC046340A002083
:102F900007B5002300930348191C1A1C03F030FCEA
:102FA00007BDC0463C0A002013B502686B46D971C4
:102FB00007335468191C0122A04716BDF7B5002439
:102FC00001900E1C171C251C0B4BE318186E0028D3
:102FD0000DD00369D9070AD501991B0E0A7A9342CD
:102FE00005D10368311C5B683A1C98472D180434DE
:102FF0001C2CE9D1281CFEBDA8090020034A00238F
:103000000832436002600182C3607047D0CF000085
:1030100070B5002586B0041CC56002AE0220308069
:10302000238A0A1C5BBA01217380039501F012FF09
:103030002072A84222DB211C0C312A1C00952B1C7B
:1030400002F0B4F908202056311C102201F076FF5E
:10305000A8420DDB03F08CF8061CE36804251D4034
:103060000ED103F085F80E4B801B984211D907E072
:103070000820205602F07AF8FF232372281C0CE067
:10308000E2680423151C1D40F2D09A43E26001203F
:1030900003E0281C00F05CFDDFE706B070BDC04611
:1030A000CF07000008B50021FFF7B2FF08BD000000
:1030B00070B50D1C041C0020161C00F049FDE968C9
:1030C00008230B400FD0154B0B40EB60002E01D0B6
:1030D000002333702A7A09020132090ED2B2201C71
:1030E000FFF714FE17E00E4A9A18116E00290CD053
:1030F0000A69D00709D5287A120E0130C0B282427F
:1031000003D1201CFFF784FE05E004331C2BEAD119
:10311000201CFFF7EBFD201C70BDC046F7FF00FF31
:10312000A809002007B5002300930348191C1A1CA6
:1031300003F066FB07BDC046440A002007B5002324
:1031400000930348191C1A1C03F05AFB07BDC04624
:103150004C0A002007B5002300930348191C1A1CD1
:1031600003F04EFB07BDC046540A002008B5034BD0
:103170001B68002B00D0984708BDC0465C0A0020A1
:1031800008B503F0D3F808BD08B503F051F908BD40
:1031900010B5041C002C04D0012002F0EFFF013C0C
:1031A000F8E710BD10B5094C00202056002103F0AF
:1031B0006FFA6420FFF7ECFF00202056012103F096
:1031C00067FA6420FFF7E4FF10BDC0463600002018
:1031D00038B5104B104D00241C60002028560121EA
:1031E00003F0FCF900202856012103F051FA0B4BA3
:1031F00000201856211C03F0F1F9094B0020185645
:10320000A04202DB022103F0E9F9FFF7CBFF002027
:1032100038BDC0465C0A0020360000203500002082
:103220003700002008B5054B05491860054B002004
:1032300018560322FFF7A4FF08BDC0465C0A002011
:103240006D3100003500002008B5074B002806D07E
:103250000020185605490322FFF792FF03E00020E3
:103260001856FFF791FF08BD350000206D310000B2
:1032700010B50A4802F038FE094C00202056012102
:1032800003F0ACF900202056012103F001FAFFF70A
:1032900089FF0120FFF77CFF002010BDB40A002049
:1032A00038000020F0B585B003283DD16B460C688E
:1032B0000F3300220E894D681A70944206D0954251
:1032C00030D10121019500911D1C03E001220094E1
:1032D00001921C1C164F174B381C06CB02F034FE13
:1032E000154B00201856002103F0D2F9002E0FD004
:1032F0002178381C02F056FE009928704B424B4151
:103300000199013EED184B424B41B6B2E418EDE78E
:10331000094A00201056012103F0BAF9381C02F0C6
:103320002FFE02E0FA2600E0FF2670B205B0F0BDE5
:10333000B40A0020600A00203800002008B50248C6
:1033400002F0FAFD002008BDB40A0020034B044A35
:103350001A6000225A711A717047C046600A002034
:10336000001BB70010B500239A4203D0CC5CC454B4
:103370000133F9E710BD8318002A03D00170013032
:103380009842FBD17047021C031C1978981A80B22E
:10339000002901D00133F8E770470000024BDA78CA
:1033A0000132D2B2DA707047B812002070470000C4
:1033B00007B50A4B002201209A70FFF745FF084825
:1033C00001A900F019FF002806D1019B0221194331
:1033D0000348019100F014FF40B20EBDB812002066
:1033E0007010000010B50B4C0020A37883420FD161
:1033F0006378834205D0637800200133DBB26370C9
:1034000006E02378002BF6D000F08BFD0028F2D0E8
:1034100040B210BDB8120020044B5A78002A03D0E5
:103420005A78013AD2B25A7000207047B812002080
:1034300008B5094B5A78002A03D05A78013AD2B21B
:103440005A705A780020824204D11B78834201D0FE
:1034500000F038FD40B208BDB812002010B5064C8F
:103460000021201C2822FFF786FF0448FFF7DAFE20
:10347000034B0020E36110BDB81200209D33000013
:10348000AD330000F0B58BB01D1C10AB0F1C02CB90
:1034900002921B887F22019312AB1B883A40039350
:1034A00006AB5A70082218705A80061C5A880029E8
:1034B00004D001998A1803998A1800E0AA1892B2D8
:1034C0005A80FFF78FFF031C002B00D095E06A465F
:1034D0000893D3820793079B3F021E430796079BDF
:1034E00006AE1F430797079A738845481B0413438A
:1034F0000793079900F084FE041E00D07AE007903D
:10350000079B02221343079307993E4800F078FE79
:10351000041E6FD16B460890D8826C461634228800
:10352000394B9A4205D8374807A900F065FE0028B4
:1035300003D0089B002B1BD158E0F4232288FF33D3
:103540009A4203D901202388FFF722FE079F022316
:103550001F4007D12D4808A900F04EFE041EE8D0F8
:10356000089747E06B46DA8A013292B2DA82D4E7F2
:10357000089B311C0993738808229BB273800998B9
:1035800000F062FE041E35D1099B029908330993AD
:10359000002908D009982A1C00F056FE041E29D1E3
:1035A000099BEB180993109A002A0FD00399099BE5
:1035B0004D1BED180995111C0998019A00F044FE65
:1035C000041E17D1099B019AD3180993089B022264
:1035D0009B000793079B0E4813430793079900F03E
:1035E0000FFE041E06D1FFF723FF06E0FFF720FFC2
:1035F000FD2002E0FFF710FF201C40B20BB0F0BD31
:103600008C10000078100000E70300000004150093
:103610006C100000F0B5574B87B01A78002A0BD118
:10362000554BDE781D1CF6B2002E00D19FE0DA78F3
:10363000013AD2B2DA700FE001F08AFB002696E080
:10364000039B0122F42613420DD14A4A1378002B22
:1036500000D08CE0002EE3D0484803A900F0CCFD58
:10366000061EF2D1ECE70020FFF7EEFD039B0122DE
:10367000934303930399414800F0C2FD061EE4D131
:103680000123AB70039BFE269B041B0D0193DCD032
:10369000059005A93A4800F0AFFD071E0ED1019A2A
:1036A000059804AC6860211CAA60042200F0ACFDFF
:1036B0006388071C9BB2061C638003D00120FFF7C0
:1036C000C3FD52E06388019A934208D06388D31AFD
:1036D000042B04DD0120FFF7B7FDFA2745E023782E
:1036E000012B04D1EB68002B31D0EB6827E0237865
:1036F000022B04D12B69002B29D02B691FE02378E2
:10370000042B04D16B69002B21D06B6917E023785F
:10371000062B04D12B6A002B19D02B6A0FE02378DB
:10372000072B04D1AB69002B11D0AB6907E02378DC
:10373000FA27052B19D16B6A002B08D06B6A6078C9
:103740006188059A0839C0B289B208329847094A97
:103750001378002B00D078E7AB78002B00D174E70A
:10376000FFF726FE071E00D16FE73E1C6DE770B223
:1037700007B0F0BD680A0020B812002070100000E9
:1037800084100000F8B51D1C002803D0002901D0CA
:10379000002A02D1002D18D11AE00F4CA3689A42DA
:1037A00016D86368984213D36368A7688618FB1815
:1037B0009E420DD800F028FD00280AD16368A26857
:1037C000D318B34201D0002D03D0FFF7F1FD00E084
:1037D000F42040B2F8BDC046B8120020013800B550
:1037E000F423062814D80B4B04F082FD06040A08C3
:1037F000100C0E0019610AE0D96008E0596106E07A
:10380000D96104E0196202E0996100E05962002385
:1038100058B200BDB8120020062815D80F2304287E
:1038200015D01023052812D0122306280FD0032309
:1038300000280CD00423012809D00523022806D033
:10384000032803D1062302E0FF2300E0FE2358B241
:10385000704738B5051C0C1CFFF7C4FD00280AD1C1
:10386000281CFFF7D9FF002803DBC0B2211C00F0A1
:1038700045FCFFF7DDFD40B238BD38B5051C0C1C1A
:10388000FFF7B0FD00280AD1281CFFF7C5FF00286C
:1038900003DBC0B2211C00F04BFCFFF7C9FD40B2B6
:1038A00038BD7FB500230590052000930193029356
:1038B000011C05AA0423FFF7E5FD07B000BD0000C9
:1038C00070B5041C9AB0151C2C287BD01B2804D181
:1038D000101C01A90822002384E0062803D1101C33
:1038E00001A930227DE00E2800D1A1E0322815D1B7
:1038F000504B10221968504B994200D91422281CB1
:1039000001A90023FFF73EFF002800D090E04B4BB9
:103910001B68002B00D18BE032206CE02F2808D1EF
:1039200001A800216422FFF726FD281C01A96422BA
:10393000D1E734280DD1101C01A904220023FFF780
:1039400021FF011E74D13D4B1B68002B70D0201C41
:103950006DE0112814D13A4A002301AC1370281CE1
:10396000211C0422FFF70EFF002861D1354B22787D
:103970001A70324B1B68002B5AD01120211C56E0C4
:1039800013280DD1101C01A92C220023FFF7FAFEE9
:1039900000284DD1294B1B68002B49D013202AE069
:1039A00004280DD1101C01A904220023FFF7EAFE10
:1039B00000283DD1214B1B68002B39D004201AE090
:1039C000652803D1281C01A9042284E7092803D112
:1039D000101C01A9642204E02A280ED1101C01A9A0
:1039E00004220123FFF7CEFE002821D1134B1B68D0
:1039F000002B1DD0201C01A919E0202818D101AEF0
:103A0000101C311C08220023FFF7BCFE00280FD138
:103A1000281C0830B28801990123FFF7B3FE002863
:103A200006D1064B1B68002B02D0201C311C984786
:103A30001AB070BD780A00204F1300006C0A0020F5
:103A4000700A0020710A002010B5041E3BD0FFF759
:103A50009AFC002837D0201CFFF795FC202832D88C
:103A6000A31CDB7F013B0D2B2DD8231C41331B787E
:103A7000002B09D1231C42331B78002B04D1231CBB
:103A800043331B78002B1ED0231C3F331B78012BA4
:103A900001D1002021E0032B17D1E31CDB7F013B88
:103AA000032B10D8231DDB7F102293430A2B0AD14E
:103AB0002434201CFFF767FC002804D0201CFFF7EB
:103AC00062FC1A28E5D9F42007E0022BFBD104346C
:103AD000E37F083B382BDCD9F5E740B210BD00008E
:103AE00070B58CB06B460126DE710733002824D0F8
:103AF0000168144A00251160134A181C157000F063
:103B000073FC041EAC4219D1FFF7A8FC041EAC42A2
:103B10000FD10E49301CFFF761FE02A800F00AFC2D
:103B2000031C041C0C3309D102A800F0ADFB041CDB
:103B300004E0281C00F07DFC00E0F42460B20CB02E
:103B400070BDC0466C0A0020700A0020C138000019
:103B500008B50023084A9A185268002A02D0126851
:103B6000910705D41033B02BF4D1FFF753FD00E0DB
:103B7000F42040B208BDC046A0130020F0B5A5B0A7
:103B80001C1C2AAB1B88069005932BAB1B780F1CC3
:103B9000161C0793012A03D17B1E1F2B1BD901E0A2
:103BA000002C01D1F4206CE0022AF5D1201CFFF793
:103BB000EAFB4028F0D10023E25C111C30393629A1
:103BC000F0D80A390629EDD9473A192AEAD901333A
:103BD000402BF1D1E0E7059B013B0D2B02D9059964
:103BE000FF29DFD109AD68463A1C6A30EF19069902
:103BF000FFF7B8FB3B1C403300279F71059A6B46CB
:103C00002A33DA87079A531E9A416B468B331A7010
:103C1000263B1E70032E13D123782B70032BC1D8A3
:103C200062781023111C6A7099430A29BAD1684638
:103C3000A11C2630FFF796FB6378EB189F7016E007
:103C4000022E0AD1201CFFF79EFB431E9BB23F2B86
:103C5000A8D8421C211C281C04E0042E05D1281CD5
:103C6000211C3E22FFF77EFB01E0012E9AD10023AA
:103C7000009301930293012028212A1C6C23FFF753
:103C800001FC40B225B0F0BD13B504AC248800940B
:103C900000240194FFF772FF16BD1FB50023021C1C
:103CA0000093019302930A2114230220FFF7EAFBF9
:103CB00005B000BD1FB50023414241410B310093C7
:103CC000019302931A1C0220FFF7DCFB05B000BD34
:103CD0001FB5002300930193029303211A1C0120B6
:103CE000FFF7D0FB05B000BD10B5041CFFF77AFB51
:103CF000002806D1201C00F035FA002801D1FFF77A
:103D000097FB40B210BD0000F0B5051CB9B00C1C0B
:103D1000161C002837D0FFF797FE071CF420002F51
:103D200032D105A8291C8822FFF71CFB201CFFF7B5
:103D30002AFB002827D0002C25D027AD211C4022AB
:103D4000281CFFF70FFB37AB1E70114B114A1F7079
:103D5000114B1968CC2391420BD86B461633DA7F8E
:103D600017A8013ADA77211C4022FFF7FBFA2E70E0
:103D70008A230022009201920292882105AA012042
:103D8000FFF780FB00E0F42040B239B0F0BDC04640
:103D9000700A00204F130000780A002013B5802419
:103DA00064000443A520211C400100F029FAA5204D
:103DB0000023400101A9019300F01EFA0028F1D16F
:103DC000019BA342EED116BD07B50023114801A9FE
:103DD000019300F011FA002819D1019B80214900BC
:103DE00019430C48019100F00BFA00280FD1D020A4
:103DF000400101A900F000FA002808D1019B8021B0
:103E00004902D02019434001019100F0F9F940B274
:103E10000EBDC04608140000F7B5214D2E682C1CBD
:103E2000002E3AD180204001291C00F0E5F9071E40
:103E300027D11C4801A900F0DFF9061E01D02F6030
:103E400029E02B68184A934204D1019A012A1AD01A
:103E5000164B08E0164A934209D1019B032B12D05E
:103E6000042B02D1134B23600DE0134BFBE7134AE5
:103E7000934208D1EC208003291C00F0BDF90028F2
:103E800001D02E6007E022680D4B1340A022D20221
:103E90001343236001E0002000E02068FEBDC0461F
:103EA000740A0020F4130000A0021000A102100008
:103EB000B0021000B1021000B2021000F0001000B9
:103EC000FFFFF0FF13B5102001A900F095F90028BD
:103ED00025D1019B01242342F5D1201C01A900F02A
:103EE0008BF900281BD101990223194206D10B201E
:103EF00001A900F081F9002808D010E09943201CA6
:103F0000019100F07DF90028F1D008E0019901232A
:103F1000194204D099430B20019100F071F940B28D
:103F200016BD37B500230B2069460093019300F0BE
:103F300063F9041E31D1009B01210B4206D0012000
:103F4000694600F059F9041E07D026E019430B20FA
:103F500000F056F9041EF2D01FE0009B02210B4234
:103F600001D0052506E01943012000F049F9041E9F
:103F7000F7D012E00F2001A900F03EF9041E0CD189
:103F8000019B5B0707D40220013DFFF701F9002DDB
:103F9000F0D1FC2401E000F027F960B23EBD000042
:103FA00038B5041C274800F023F9002803DB012062
:103FB000FFF7EEF8F6E7244800F01AF9C30709D531
:103FC000022C15D12149224800F01AF980212148FC
:103FD00049031EE0204D0120FFF7DAF8013D1F489C
:103FE00000F006F9002D2AD01D4B9842F3D1E7E7E7
:103FF000032C06D11549164800F002F91548002196
:1040000007E014481749042C03D100F0F9F8802484
:1040100002E000F0F5F80024FFF7FEFE124B000569
:10402000000D984202D90220204300E0201CFFF737
:10403000B5FE0A480D4900F0E3F8002000E0FB203F
:1040400040B238BD14100000BC0702007DD51C3CF6
:10405000AC0702008C100000D10700000C000C001F
:104060009ED0AD10521352139F030000612F52EFE8
:1040700037B5134B02380093124B01931D1C0128D6
:1040800003D8114B0093114B0193FA24E400002054
:10409000019B83420AD00220FFF77AF8013C009886
:1040A00000F0A6F8002CF3D1FB2407E0019B0024CC
:1040B000AB4203D10248211C00F0A2F860B23EBD21
:1040C0008C10000036265302AC070200C3C15DD736
:1040D00007B5A0200023400101A9019300F08CF84E
:1040E000002807D1019B0449A020194040010191FB
:1040F00000F086F840B20EBDFFFBFFFF37B5041C91
:104100000D1C0A4801A900F077F800280CD1012203
:10411000019BA240002D01D0134300E09343019383
:104120000248019900F06CF840B23EBD080102005F
:1041300037B5041C0D1C0A4801A900F05DF80028E1
:104140000CD10122019BA240002D01D0134300E0BD
:10415000934301930248019900F052F840B23EBDEA
:104160000001020030B587B00023041C01A91848E3
:104170000493059300F040F8002825D1019B002B03
:104180000BD0C0208002184304A9082200F03CF89C
:10419000002819D1049A019205E00E4801A900F007
:1041A0002BF8002810D1019AC02093B28002184346
:1041B00002A90622019300F027F802A9051C062295
:1041C000201CFFF7CFF8281C40B207B030BDC04616
:1041D00008000C009C14000008B5FFF749F808BD62
:1041E00008B5FFF7ABF808BD08B500F0C6FA08BD82
:1041F00008B500F0D7FA08BD08B500F0D9FA08BD37
:1042000008B500F0DFFA08BDF7B50E4B051C1C8899
:104210000191083C161CA4B20027019BD919A642A3
:1042200004D8B2B2281C00F017FB09E0281C221C9D
:1042300000F012FB002803D1361B3F192D19ECE7C3
:1042400040B2FEBD3A000020F7B50E4B051C1C889D
:104250000191083C161CA4B20027019BD919A64263
:1042600004D8B2B2281C00F049FB09E0281C221C2B
:1042700000F044FB002803D1361B3F192D19ECE751
:1042800040B2FEBD3A00002073B50023041C01A912
:1042900022480193FFF7B0FF214B019A061C9A4276
:1042A00004D1204801A9FFF7A7FF061C019B0F2599
:1042B0001A0C91B2080A2A400909294062729AB27E
:1042C0002172110A12092A402B4021716271A371D7
:1042D000E071FFF7A1FD002322792384A37961799E
:1042E00012022B4013430901FF2211400B430E49D8
:1042F00020600B60E179607A090205400D43217A64
:1043000009010A4009492A438A4200D9F326084A8A
:10431000934200D8F32670B276BDC046AC070200C7
:10432000C3C15DD748100000780A00205213000076
:10433000511300007FB5002102AD041C01910291D0
:104340006960884201D1002042E02822FFF713F87B
:10435000214801A9FFF750FF002839D10198002812
:1043600001D1F42034E0C026B6023043291C0822D3
:10437000FFF74AFF00282BD1A88801900028F0D031
:104380003043211C2822FFF73FFF002820D122794B
:10439000A3790F201202034013436279FF21120117
:1043A0000A4013430D4A1360627AE5790240207A8D
:1043B0002D0200012A4301400A43002BD1D0002ADC
:1043C000CFD007498A4202D8064A9342BBD8F3208D
:1043D00040B204B070BDC04608000C00780A00204E
:1043E000521300005113000038B5002803D005789F
:1043F0006B1E032B00D901250020FFF7EDFE041EE4
:1044000015D100F0E9F9281CFFF7CAFD041E0CD1F4
:10441000281CFFF72DFE041E07D1023D012D06D9F1
:10442000FFF7D2FC002802D0041CFFF7D9FE60B2CF
:1044300038BD10B5FFF74CFE041E09D101F0D2F8CB
:10444000041E05D1FFF7CCFE041E01D100F0A4F933
:1044500060B210BD1FB501AB01900022198103208D
:10446000191C0292FEF71EFF05B000BD1FB501AB7F
:104470000022029019810320191C0192FEF712FFFD
:1044800005B000BD73B56C46061C0734CF2806D0B6
:10449000031C3B33DBB2012B01D90B250EE0201CA2
:1044A0000121FFF7E3FF0028F7D000201CE023786C
:1044B000B3420AD0013DEDB2002D06D0201C0121EF
:1044C000FFF7D4FF0028F2D0EFE70B25201C0121D5
:1044D000FFF7CCFF0028E8D12378002B03D0013D63
:1044E000EDB2002DF2D1012040B276BDF0B585B01D
:1044F00000900C1C019200278026B601B44200D81F
:10450000A6B20A2568460B300121FFF7AFFF00284D
:1045100001D0002020E06A46D37A1B090F2B05D07A
:10452000013DADB22BB20133ECD1F2E72DB2002D3B
:10453000EFDD009BB6B238B21818311CFFF796FFBA
:104540000028E6D1019A002A09D0A41BF319A4B2CD
:104550009FB2002CD0D1012040B205B0F0BD054B78
:104560001B78002BF1D103A80221FFF77FFF002861
:10457000EBD0CEE77C0A002030B585B008AC2578BA
:1045800001AC2070C1380E2857D803F0B1FE2121AC
:10459000360E19192B2B4808565656561B000B0C75
:1045A00063700B0AA370E17010E00B0ADBB2002D00
:1045B00002D08022524213436370A170002304E0B2
:1045C000002300E0FF236370A370E370052138E04F
:1045D0000A0C62700A0AA2701A0AE17022716371F1
:1045E00007212EE00A0C62700A0AA2701A0C2271CE
:1045F0001A0AE1706271A3710FE00B0ADBB2002DA1
:1046000002D08020404203436370130EE370130C0A
:104610002371130AA1706371A271082111E00B0CC0
:1046200063700B0AA370130E2371130C6371130ACA
:10463000E170A371E271092103E0002040B205B0EE
:1046400030BD0D4B4A1E1B78002B0DD17F2001334E
:104650004000994206D0E518013D2D786840074D8D
:10466000285CF4E7A05400E0D1B2201CFFF7F2FE72
:1046700043425841C0B2E1E77C0A0020E8CF000085
:10468000F0B585B0071C03910A25302F02D801230D
:10469000C32601E00023C9260093301C391C039A6D
:1046A0000423FFF769FF041E012C05D1301CFFF71E
:1046B000E9FE041E012C13D00120FEF769FD002342
:1046C0000093191C1A1CCF20FFF756FF013DCF2085
:1046D000FFF7D8FEEDB20120FEF75AFD002DD4D130
:1046E00060B205B0F0BDF0B587B0029003910A2723
:1046F000029AFF2A02D80126C42501E00026CA2515
:104700000096281C029900220423FFF735FF041E9F
:10471000012C1DD1281CFFF7B5FE041E012C17D15A
:1047200005AD281C0421321CFFF7E0FE041E012CFD
:104730000ED16A78AB7812021B0413432A78134314
:10474000EA7812061343039A136060B207B0F0BD13
:104750000120FEF71DFD00230093191C1A1CCF2019
:10476000FFF70AFFCF20FFF78DFE0120FEF710FDB7
:104770007B1EDFB2002FBBD1E7E713B50024211C5D
:10478000221C231C0094CF20FFF7F6FECF20FFF75A
:1047900079FE201C16BD0000014B002018707047E8
:1047A0007C0A002007B501A9FFF79DFF01980EBD07
:1047B00008B5FFF798FF012801D1002000E0FA209A
:1047C00040B208BD08B5FFF75BFF012801D100200A
:1047D00000E0FA2040B208BD13B51D4C00231D486F
:1047E00001A901932370FFF77EFF002803D02378EF
:1047F000002B09D015E00123164801A92370FFF70B
:1048000072FF0028F3D11DE0019A7C239A435021C6
:10481000114310480191FFF733FF002812D0012304
:104820002370802040016946FFF75DFF00280BD010
:104830000848FFF7B7FF702398435021014305480C
:10484000FFF7C0FF002000E0FA2040B216BDC046CE
:104850007C0A002024E80000F0B5151C89B0002275
:10486000059004910A270392012D01D10395022599
:1048700000260096C8200599321C2B1CFFF77CFEF1
:10488000041E012C1CD1C820FFF7FCFD041E012CC6
:1048900016D1039BB3420AD0321C07A8291CFFF78C
:1048A00025FE6A46137F049A041C137005E00498E1
:1048B000291C039AFFF71AFE041C63B2012B13D0C4
:1048C0000120FEF765FC00230093191C1A1CCF2061
:1048D000FFF752FECF20FFF7D5FD0120FEF758FC71
:1048E0007B1EDFB2002FBFD164B2012C01D10020AA
:1048F00000E0FA2040B209B0F0BD0000F0B50A2394
:1049000089B004900591151C0393012D00D1022557
:1049100000260096C7200499321C2B1CFFF72CFEA2
:10492000012854D1C720FFF7ADFD01284FD107ABB7
:104930001E802C1C8023221C9B019C4200D91A1C27
:1049400092B20292002E04D103229C4205D9012288
:1049500003E00022A34252410232102368465B4228
:104960001B301A4301210270FFF774FD00282ED17D
:10497000059B30B218180299FFF76CFD002826D16C
:10498000204F3B78002B07D0029BE41A9E19A4B25B
:10499000B6B2002CCED106E007A80221FFF75AFDDF
:1049A0000028F1D013E03E7807A8731E9E4102361E
:1049B000311CFFF75BFD002809D107AB9E19731E60
:1049C0001B78002B03D1023E3378C32B16D0012075
:1049D000FEF7DEFB00230093191C1A1CCF20FFF703
:1049E000CBFDCF20FFF74EFD0120FEF7D1FB039B4F
:1049F000013BDBB20393002B87D1FA2460B209B0EC
:104A0000F0BDC0467C0A0020F0B585B003920AAA2A
:104A1000128802900192002A46D0244D020150597A
:104A2000002841D0AD18AA88002A3DD0AF7AFFB245
:104A3000012F39D11E4C1F4E201C18223360FEF767
:104A400091FC0198E080AB88C31A1BB2002B0CDDEF
:104A5000AB8802999BB20193174B039A1F70174BB7
:104A60001970174B1A70002300E03B1C02980F4F7F
:104A70000501E9593068019AFEF784FE002813D138
:104A80000199E388ED595B1AE3800E4B25601A68A3
:104A9000A180002A04D01B6802980399221C984721
:104AA0003068019A1318336005B0F0BDE41200209D
:104AB000880A0020840A0020680A00207E0A00205C
:104AC000A20A002094130020F0B50F1C9DB0141C06
:104AD000412801D0542816D10BAD201C291C0422DA
:104AE0000023FEF74FFE002800D025E16B7807AACF
:104AF0001370924B1968002900D11DE100201B683A
:104B00002856012117E0422817D10BAD101C291C93
:104B100004220023FEF736FE002800D00CE16B785B
:104B200007AA1370854B1968002900D104E1002001
:104B30001B68285602219847FEE043283FD107AD65
:104B4000101C291C0C220023FEF71CFE002800D09C
:104B5000F2E0697A48B200281FDB0823EB56784A56
:104B60001B01D318DE7A00011318F6B2DE7201269B
:104B70009E726C89083CA4B21C81724B1C88A419DB
:104B8000A4B21C801C88002C03D11C88A419A4B2D8
:104B90001C801B8810189BB2C3800BAA02231170C3
:104BA00093806B886968D380644B91601968002991
:104BB00000D1C1E008201B6828560421BBE7442827
:104BC00001D04B2821D10BAD201C291C042200232D
:104BD000FEF7D8FD002800D0AEE0287807AA1070B4
:104BE0006B785370002B07D1698843B2544C083955
:104BF0001B0189B2E3181981504B1968002900D1B3
:104C00009AE01B6840B2052195E74A2812D1101C92
:104C10000BA944220023FEF7B5FD002800D08BE04D
:104C2000494B1A68002A00D186E01B681B990BA823
:104C3000984781E0462803D0482803D04D2840D12A
:104C4000062600E0092607AD0023201C291C10229F
:104C5000FEF798FD031E6FD1EA890C2003922856B7
:104C60003749020189180B738C46298902916A8998
:104C7000059269886D680BAA5181D5606146CD881F
:104C80000399A94214D102990BB2002B0BDD3FB25C
:104C9000BB4208DA0599631802990091111C321C75
:104CA000FFF7B2FE48E0029B938000230B9326E0BF
:104CB000102F41D9191C1A1C181C0123FEF762FD84
:104CC0003AE0452803D0472803D04C281ED10726B8
:104CD00000E008260BAD201C291C08220023FEF74B
:104CE00051FD002828D128786B8807AA40B2144CBF
:104CF000A98813800301E318DB8899421CD10F4B6C
:104D00001968002918D01B68311C14E7522813D1E8
:104D10000BAD101C291C14220123FEF733FD0028C3
:104D20000AD10A4B696819601A68002A04D01B6806
:104D30002868A9682A7C98471DB0F0BD941300200C
:104D4000E4120020A00A00209C13002098130020E9
:104D5000F8B5264DEC88002C46D0254B002159563D
:104D6000244E09018A59002A3ED072189388002BDC
:104D70003AD0131C08339B78DBB2012B34D19088D6
:104D8000201A00B2002806DD1B4F02233B709488D6
:104D90000023A4B202E0184F03223A70174F715853
:104DA0003868221CFEF7EEFC002815D1104A0020BE
:104DB0001056AC800301F658EB882E601B1BEB806D
:104DC0000F4B1A68002A04D00E4A1B6811782A1C5F
:104DD00098473B68E4183C60074F3B78032B03D1AE
:104DE00000233B70FEF724FBF8BDC046880A002074
:104DF0007E0A0020E4120020680A0020840A0020B5
:104E000094130020A20A002038B5094D2C78E4B292
:104E1000002C0CD10748211CB022FEF7ACFA02206E
:104E20000549FEF7DBFC01232B70044B1C8038BDC9
:104E30007D0A0020E4120020C94A0000A00A0020D8
:104E4000024B1860024B19607047C0469413002053
:104E50009C130020F0B5171C89B002285FD10129EE
:104E60001AD10726304D07212B782C78DBB2287811
:104E700005932E4B24010130E41803F0E7FAC9B280
:104E80002970A37A002B02D1059BDDB21EE0013E02
:104E9000F6B2002EE6D142E0022940D10422244B92
:104EA00024491D781C780320240164181978EDB278
:104EB000013101401970A37A002B02D10735EDB200
:104EC00004E0013AD2B2002AE9D128E06BB2002B0B
:104ED00026DB1022201C0021FEF74DFA0123A372CD
:104EE000154B1A88013292B21A801A88002A03D10F
:104EF0001A88013292B21A801B889BB2E380FB07AA
:104F00000ED52123E37207AA0023157050210093C8
:104F10000193029302200423FEF7B4FA00E0FF2578
:104F200068B209B0F0BDC0467F0A0020E41200203C
:104F3000800A002054130020A00A0020F0B589B098
:104F4000002927D0002825DB144F0601BC19A37ABD
:104F50000834DBB2012B1DD1002A1BD0E278542586
:104F60001A4200D1412505AC20720822201CBE192E
:104F7000FEF7F8F9F3880220638100230093019380
:104F80000293291C221C0C23FEF77CFA002802D075
:104F9000F72000E0FA2040B209B0F0BDE412002092
:104FA0007FB5002819DB0F4A0301D3181A1C0832F9
:104FB0009278012A11D105AA10705170DB88022065
:104FC0005380002300930193029342210423FEF7B0
:104FD00059FA002802D0F72000E0FA2040B207B0CA
:104FE00000BDC046E4120020F0B5141C89B00028B2
:104FF0002CDB00292AD0174F0601BB199A7A0833F7
:10500000D2B2012A22D1002C20D0DC784425A4463B
:10501000674605AC174202D0DB784B2563722072DD
:105020000822201CFEF79EF90A4F0220BE19F388C1
:10503000291C63810023009301930293221C0C23FB
:10504000FEF720FA002802D0F72000E0FA2040B254
:1050500009B0F0BDE4120020F0B50D1C89B00028A5
:1050600035DB002933D0AF23DB009A422FD81A4911
:1050700006018C19231C08339B78012B27D104AB24
:1050800018705A80E4889C814424062800DC50244F
:105090008919CE7A4520F7070AD50C890F49A4B2A1
:1050A00008680F49884201D94C2001E04C20552462
:1050B00080210143019200951A1C029410230220C2
:1050C000FEF7E0F90023984202D0064B00E0064BC1
:1050D00018B209B0F0BDC046E4120020780A0020E2
:1050E0003F130000F2FF0000FAFF0000F0B587B0A8
:1050F000002830DB00292ED0002A2CD0184F0501C3
:105100007C19A67AA446F6B20834012E23D1E951BF
:1051100061468A802179002291421DD12671E27870
:105120004D21324200D14621002B01D101235B42A7
:1051300004AA107104937D19EB880024D380022007
:105140000094019402940823FEF79CF9221CA042CB
:1051500002D0044A00E0044A10B207B0F0BDC046D5
:10516000E4120020F2FF0000FAFF0000F0B587B063
:10517000002824DB144E05017419A77A211CFFB204
:105180000831012F1BD105AA1070E388538000233A
:105190008B70E380C8784E21384200D149210093BA
:1051A0000193029302200423FEF76CF9041E00D041
:1051B000F724701900211022FEF7DDF800E0FA2430
:1051C00060B207B0F0BDC046E4120020F0B589B06F
:1051D000002833DB002931D0002A2FD0194C0501DB
:1051E0006719A4463C1C0834A678F6B20496012E32
:1051F00024D1A678002E01D1002320E06646A951D3
:10520000BA802279002AF7D1049A2271002B01D1A9
:1052100001235B4206AA107106936544EB880024C3
:10522000D380022008230094019402944821FEF7C1
:1052300029F9231CA04202D0034B00E0034B18B213
:1052400009B0F0BDE4120020F2FF0000FAFF0000F8
:105250001FB5041CFEF797F8C3B2402B0BD80021F2
:10526000C0B2431C009101910291221C4A210220EC
:10527000FEF708F900E0FA2040B204B010BD0000CB
:10528000F0B599B01EAC2488059400287DDB002B76
:105290007BD0404E0501741904940834A778FFB2FE
:1052A000012F72D102295AD106286EDCE6783E42DF
:1052B0006BD0012A08D11868E378002802D019437E
:1052C000E1704AE08B430BE0032A0BD11868E278C7
:1052D0001023002802D01343E3703EE09A43131CCE
:1052E000E37053E0042A0FD11B68002B05D0294F2F
:1052F00040227D19EB7A134304E0264A5519EB7AD4
:1053000040229343EB7228E0022A3ED1059C3F2CB9
:105310003BD8204E06AC20707519EA88059F191CF1
:1053200000266280022508A8402265700797FEF7D4
:1053300019F8009601960296281C5121221C482338
:10534000FEF7A0F8033008D1009601960296281CBB
:10535000D121221C4823FEF795F8002016E01B6897
:1053600006AC6271049A20710693D3880220E38010
:1053700000230093019302934F21221C0823FEF780
:1053800081F8002802D0F72000E0FA2040B219B0DE
:10539000F0BDC046E412002008B503480021B02249
:1053A00004F0D8FE08BDC046A013002030B5044D5F
:1053B00000012C18E360039B6160A260435130BD83
:1053C000A013002010B50449000100230A185360FF
:1053D0009360D360435010BDA0130020F7B5051CA7
:1053E000481E141C082800D9F0E002F081FFB9EF34
:1053F000EFD50519EFEF5700002A0FD053787F2B18
:105400000CD8734E2C01A159724A0023281C341960
:10541000FFF76CFE636801221968D5E0281CC9E01B
:1054200000210520FEF729FA00210220FEF725FAC7
:1054300067482901002C1FD00422A35E002B1BDD2E
:105440004618B7683A689B18624A934204D9736851
:1054500002221C682243B8E03B60002B07D0E3889F
:10546000002B12D0736802221E68324363E0415859
:10547000281CFFF73BFE08E041184B6801221F681B
:10548000281C97431F60FFF771FE01210520FEF7DE
:10549000F4F901210220FEF7F0F997E00021052040
:1054A000FEF7EBF902200021FEF7E7F9002CECD023
:1054B000A7883AB2002AE8DD474B454E1B78280101
:1054C000012B23D831188B681A6833580193E3886D
:1054D0009C466744BFB2019B00973F0A9F54009FC0
:1054E0009B185F7067899F7067893F0ADF70E77B51
:1054F0001F71E7895F71E7683F0A9F71E768DF7195
:105500008B680427E15F5218083203E033189B6868
:1055100019688A181A6033189A6811682D4A571A40
:10552000BC462E4FBC4508D8E288002AADD05B6847
:10553000022219680A431A60A7E7274B1B78002B41
:1055400005D0032B03D03358281C591804E03358D6
:105550000831204A5918281C0023FFF737FE94E72A
:10556000002A33D00023D356002B2FD1184A29010B
:10557000501840680424066834430460062D04DC97
:10558000281C191CFFF70CFD20E08958281C083145
:10559000104AFFF71BFE19E0002A17D00020105612
:1055A000002813DB0A4B2D015D196B68082219686E
:1055B000114202D0FFF7DAFD08E009480140196006
:1055C00000202056000401430A431A60F7BDC0467C
:1055D000A0130020A6050000680A0020AD05000009
:1055E000FFFF00FF73B5061CFEF716FC294B0005F4
:1055F000000D002498424BD9274801A9FEF7FCFD75
:10560000041E45D1019B254D25492B4019432248B5
:105610000191FEF7F5FD2348211C002E20D0FEF756
:10562000EFFDAB212048FEF7EBFD01211F48FEF7FF
:10563000E7FD211C1E48FEF7E3FD1E488121FEF711
:10564000DFFD1D48FEF7D4FD0128FAD1019B802122
:105650001D404902294310480191FEF7D1FD17E092
:10566000FEF7CEFDB9211048FEF7CAFD01210F4813
:10567000FEF7C6FD211C0E48FEF7C2FD0D48812134
:10568000FEF7BEFD0C48FEF7B3FD0128FAD1DDE7B9
:1056900060B276BD9F03000010140000FF8F88F8F1
:1056A00000101101080201000C02010014020100A7
:1056B0001C020100040201001802010000207047D2
:1056C000002070470120404270470120404270474F
:1056D000704708B5006903689B68984708BD08B51E
:1056E000006903685B69984708BD08B500690368ED
:1056F0001B68984708BD0000FA22920082600D4A9C
:10570000002308320260021C3C32436003610375CF
:1057100083631370021DD3670432D3678032136032
:1057200013719360D36013635363031CC03301226E
:105730001A70704770D10000021C9032136830B5A7
:105740005918031C98331960012420331C60041C71
:105750009434246815682C19A1420FD20D784C1C82
:105760002F2D09D100250D701D68691C2635AD004F
:1057700019602C50082901D0211CE8E730BD021C1B
:10578000903230B514686318041C9434246815688A
:10579000641A2C19A34206D21C78002C01D12F24A4
:1057A0001C700133F0E730BD4B1C08D0826B531CDA
:1057B000821883635175202B01D11F2383637047A7
:1057C00038B50368041CDB689847051C291C201C9D
:1057D000FFF7EAFF281C38BDF7B5051C0E1C0C1C92
:1057E0002378002B1CD02B68281CDB689847071CEB
:1057F00004F016FF0134631E0190187804F010FFC6
:10580000019B8342ECD0281C391C013CFFF7CCFFE4
:10581000B44203D0631E1978281CF6E7002000E08C
:105820000120FEBDF7B5031C071C943390373A499D
:10583000041C3D6801931E68FFF7CEFF002801D0CD
:10584000012306E0201C3549FFF7C6FF002802D0DF
:105850000223237532E0201C3149FFF7BDFF0028E9
:1058600001D00323F5E7201C2E49FFF7B5FF0028E0
:1058700001D00423EDE7201C2B49FFF7ADFF0028E2
:1058800001D00523E5E7201C2849FFF7A5FF0028E4
:1058900001D00623DDE7201C2549FFF79DFF0723E4
:1058A0000028D6D136E020280ED00A280CD00D28AA
:1058B0000AD0002E01DD28700135013E2368201C2E
:1058C000DB689847431CEED100232B703D682B7892
:1058D0002F2B1FD1731E9E41231C01358C333D603D
:1058E000281C1E703F2104F019FD071C7B1E9F41E0
:1058F000061CFFB2401B002E02D1281C04F022FD22
:10590000019B88341860C0192D182560002F01D024
:1059100000233370F7BDC04690D1000095D1000040
:105920009BD10000A1D10000A6D10000AED10000A3
:10593000B5D1000010B5041C006903685B69984785
:10594000206903685B6A98470023221DA3633832ED
:10595000536413702375C0340123237010BDF8B550
:105960000369041C002B33D0836B002B2BD100F078
:10597000FFFBFA239B00C718206903689B6A9847BE
:10598000002825D0261C3C363378002B03D0231D5D
:10599000DB6F002B1CD020690368DB689847051C6F
:1059A000431C07D03378002B14D00434E36F013B41
:1059B000E3670FE000F0DCFBB842DDD9201CFFF705
:1059C000B9FF281C06E0013B8363C418607D01E039
:1059D00001204042F8BD70B5041C0D1C081C0021BC
:1059E000161C04F0B7FB013E2368201CDB689847B7
:1059F000011E2029F8D00928F6D0012E02DD2970D9
:105A0000013E01352368201CDB689847011E0D29E3
:105A1000F3D1201CFFF7C8FE70BDF8B50023041CAD
:105A20000D1C0B602368201CDB689847011E202991
:105A3000F8D00928F6D000272D2805D12368201C8E
:105A4000DB6898470127011C00260B1C303B092B03
:105A50000CD82A680A23534359182368303929601F
:105A6000DB68201C98470126011CEEE7201CFFF78D
:105A70009BFE002F02D02A6853422B60301CF8BDD9
:105A800070B5061C0836041CF167201C1B49FFF783
:105A9000A3FE002805D0211C201C8031FFF7BDFF8C
:105AA000F3E7F56F002D18D0201C2968FFF794FE4E
:105AB000002810D02368201CDB689847C3B23A2B1B
:105AC00005D16968AA68201CFFF785FFDDE7C1B230
:105AD000201CFFF769FEED68E4E7201C0849FFF78A
:105AE0007BFE002803D03C340123237005E02368AB
:105AF000201CDB6898470130C7D170BDBED10000C3
:105B0000CED10000FA2292008260044A00230832BB
:105B1000436002600361C3637047C04608D200005F
:105B200070B5002288B0051C0C1C21786846531CF7
:105B3000815400290BD0202B06D1286969460268C0
:105B400056681A1CB047002301341A1CEDE7012BDC
:105B500004D92869694603685B68984708B070BD36
:105B600008B500690249036802225B68984708BDCE
:105B7000D0D1000070B5041C0025E36B9D4213D208
:105B8000EE00A6197169201C00F0D8FE0749201C00
:105B900000F0D4FEB169201C00F0D0FE0135201CBD
:105BA000FFF7DEFFEDB2E8E770BDC04665CF00004D
:105BB00038B5041C0D1C0849FFF7B2FF291C201C36
:105BC00000F0BCFE201CFFF7CBFF201CFFF7D2FF2C
:105BD000201CFFF7C5FF38BDE8D0000010B506490E
:105BE000041CFFF79DFF201CFFF7C4FF201C034986
:105BF000FFF796FF10BDC04608D1000023D100007A
:105C000008B5081CFFF7EAFF08BD000010B50649FB
:105C1000041CFFF785FF201CFFF7ACFF201C034985
:105C2000FFF77EFF10BDC046D3D1000057D1000062
:105C300008B5081CFFF7EAFF08BD002303604360B6
:105C400081600B782F2B01D1013181607047F8B54D
:105C5000051C1020141C0E1C1F1C04F045FA002CFF
:105C600004D023782F3B5A425341E4180023C360E9
:105C70002B68046047600672002B01D1286005E0A4
:105C8000DA68002A01D0131CFAE7D860F8BD70B5B5
:105C90001378002B03D10B780120002B31D0002387
:105CA0001C1C1D1C165D002E1AD0C85C002828D0B4
:105CB0003A2E0DD1105D002806D02F2804D00134D3
:105CC000F8E72F2808D00133C85C0028F9D103E099
:105CD000864203D1013301340125E3E7002010E0BF
:105CE000002D08D0CA5C2F2A06D1CA18527801208C
:105CF000002A06D000E00025C85C434258414042DB
:105D0000284070BDF0B5876885B00290381C0C1C27
:105D1000039204F017FB231C90331D68C2B2061CCB
:105D2000291C381C009204F014FB002301939842B4
:105D300039D1009AF7B2AD182B782F2B02D1013749
:105D40000135FFB2029B00221E680192002E2AD06C
:105D5000231CC0331B78002B25D0337A227D9A4236
:105D600004D0082B04D0092B1BD10AE0092A08D043
:105D70000298291C3268FFF78AFF002811D00123FE
:105D800001933268231CBC331A60201C391CFFF7B6
:105D9000D3FC201C039973689847201C391CFFF71B
:105DA000EEFCF668D2E7019805B0F0BD70B50025AD
:105DB000041C20C0FFF7A0FC201CC830FFF7A2FE87
:105DC00086235B00E618301C0649FFF736FF064ABB
:105DD000231CFC33DA61054A5D62DE60201C1A6216
:105DE00070BDC046D2D10000015C0000315C0000F3
:105DF000F7B5061C0160002933D041619430026080
:105E0000351C321C013B9832341DC8351360201CF0
:105E10002961FFF707FD337EFC36002B01D1F369C2
:105E200017E0201C716AFFF72BFE0023F76801932F
:105E3000002F0AD0381C211C2A1CFFF763FF002802
:105E400001D0012301937F68F2E7019B002B03D16E
:105E5000336A201C291C9847201CFFF76BFD002388
:105E6000EB63F7BD00B591B06A464023FFF7C0FF72
:105E700011B000BD10B50D300C1C131CFF300121FA
:105E8000221CFFF7E4FE10BD07B500230093034872
:105E9000191C1A1C00F0B4FC07BDC046A40A00205F
:105EA000437A002B04D18372C372C360012343720F
:105EB000704730B585B0041C02AD006802910392B2
:105EC00000F0A6FE6B79E179227A00932068002326
:105ED00000F042FF29792068029A00F069FE2068EC
:105EE00000F08CFE05B030BD70B5041C1826FFF71D
:105EF000D7FF2079331C43430D4D0821EB18595629
:105F000000F0F6FBA079331C43430821EB185956E7
:105F100000F0EEFB607908214643AD19695600F0A8
:105F2000E7FB044B201C06CBFFF7C3FF70BDC04648
:105F300028D20000AC0A002010B5041C006800F054
:105F40004FFE0023637210BD07B5837A0091019262
:105F5000002B0DD09A0706D5EFF310835A42534118
:105F6000C37272B604E0DA0702D58289034B9A60E5
:105F70000099019AFFF79DFF07BDC0460018004039
:105F8000837A002B0BD09A0704D5C37A002B06D056
:105F900062B604E0DA0702D58289014BDA60704705
:105FA0000018004008B5006800F03CFE08BD000085
:105FB000094B0A4A0A491A6000225A711A71094BA0
:105FC0001960162119711821997117215971012130
:105FD0005A72D9711A727047AC0A002000093D004C
:105FE000640C0020B40A0020F8B5041C9830161C7C
:105FF0001D1C0F1C00F0FCFB231C0122AC33524281
:106000001A600C3B1F609E800C3B1D60069B0022AB
:106010002360231CA833201C1A60F8BD07B5002399
:1060200000930348191C1A1C00F0EAFB07BDC04688
:10603000C40A002008B5024800F002FF08BDC046AF
:10604000CC0A002008B5024800F0FAFE08BDC046A0
:10605000900B0020F7B5164F1649381C00F038FD9C
:106060001549164800F034FD1549164800F030FD7A
:106070001549164800F02CFD1549164800F028FD7A
:10608000154D03260124281C144900F021FD391C5C
:106090000096231C01940022114800F0ADFE0096EA
:1060A000291C01941F221E230E4800F0A5FEF7BDF7
:1060B000580C002000080042000C00425C0C00203C
:1060C00000100042600C002000140042540C00201C
:1060D00000180042640C0020680C0020001C0042E4
:1060E000CC0A0020900B0020FEE7000008B5034B0F
:1060F0001B68002B00D0984708BDC0466C0C0020E0
:1061000038B50F490F4CA14204D100F055F800F00A
:10611000C5FB0BE00C4D8D42F7D00023CA18E818E0
:10612000A24204D2006804331060F7E7FEE7904211
:10613000EBD0064B064A9342E7D2002204C3F9E7AC
:1061400000000020B001002038DA0000B00100207B
:106150005414002008B500F02CF8002801D100F0FC
:106160001DF808BD014B18607047C0466C0C00203C
:10617000014B18687047C046700C002070B5041EB3
:1061800008D0054B1D681E1C00F012F833685B1B1D
:10619000A342F9D370BDC046700C002008B5034B74
:1061A0001A6801321A6000F059FC08BD700C00201A
:1061B000704700207047000070B54C4A1E2153689C
:1061C00002208B4303434A4953608B6908242343CD
:1061D0008B61484C484B9C829C8A20439882101CBF
:1061E000DA689407FCD5454A012414701478E50751
:1061F00004D5424C647864B2002CF7DB012494602F
:10620000547864B2002CFBDB3D4D3C4C6560547807
:1062100064B2002CFBDB8225384CED01658054789C
:1062200064B2002CFBDB9C8C8025AC439C84DC6836
:10623000E606FCD5334D304CE562DD682E4CEE06AB
:10624000FBD5A58C304E3543A584DD682A4CEE067F
:10625000FBD5A58C02263543A584DC682506FCD534
:10626000254CE4686606F8D5DC68E506FCD5002414
:106270009460547864B2002CFBDB244D1F4C6560A5
:1062800055781E4C6DB2002DFADB1E6A204D35404C
:106290008026760035431D621D6A8026B5431D6247
:1062A0000323A3601B4B636053785BB2002BFBDBC3
:1062B00000230B72184A4B728B72CB72174BFF2163
:1062C0001A60174B174A1B6812685C01D20E2140F6
:1062D00011439A06520F12020B1C1343124A1385E4
:1062E000436880221343436070BDC04600400041B4
:1062F000000400400C06000000080040000C0040B4
:1063000001050100B805FF7D040A00000007030035
:10631000FFFCFFFF03060100006CDC023C000020D4
:10632000246080002060800000400042F0B5182307
:10633000434385B00292364A1625D3185D57019023
:106340000391691C62D0102D60D0324B324C196819
:1063500000291FD14422314803F0FCFE30491022AD
:10636000CA67304BC02149005A50C1218900585892
:10637000FF26B04358501A602B4A2C4B5A80237882
:106380000222134323706378DB09012BFBD0214BDE
:1063900001221A60012763693E1CAE4033436361EA
:1063A0000021019800F0A4F91C4A0399AB00995010
:1063B000072D00DC0027FB00029AED1AAD00042A2D
:1063C00022D8101CBF0001F093FF03080D12170024
:1063D000114B0522FF18BB6912E00F4904227F18F8
:1063E000BB690DE00C4ABF18BB69032208E00A4BE9
:1063F0000222FF18BB6903E0074901227F18BB692D
:10640000AA40151C1D43BD61B6B2E66005B0F0BDE3
:1064100028D20000B80C002000180040740C0020A6
:1064200004E100E000E100E005400000000C004055
:1064300018235843084B18181623C3565A1C09D062
:10644000102B07D001229A40044B91B299605969F0
:10645000914359617047C04628D20000001800409F
:1064600070B50024084D01262B69A640334206D0A2
:10647000064BA200D358002B00D098472E61013460
:10648000102CEFD170BDC04600180040740C0020E5
:10649000314BFA21186810B5890001F033FF2F4BFA
:1064A0000138984224D82E4A2E4B5060186AC021D9
:1064B0000002000A090601431962002407219460C2
:1064C0001160196A80220902090A12060A431A6237
:1064D000254BFC211A6A0A431A62196AFC229201AE
:1064E0000A431A62196AA022D2020A431A6200E021
:1064F000FEE7201C0021013400F070F8142CF8D1C4
:106500001A4C63785BB2002BFADB194B6380194B92
:106510005A7ED209012AFAD0E422D2009A803F2280
:10652000DA70597E134AC9090129FAD0C0235B01E8
:1065300000201361907000F023F863785BB2002BA9
:10654000FBDB0D4A094B5A800C4BDA79D209012A40
:10655000FAD041225A7010BD3C000020FFFFFF001E
:1065600010E000E000ED00E000040040000C0040FE
:106570001E40000000400042214000000048004250
:1065800000B5144A517E131CC9090129F9D00138FC
:10659000042813D81969104A0A401A615A780F2141
:1065A0008A4301F0A5FE030509070300012102E06B
:1065B000032100E002210A435A700AE01169F02326
:1065C0001B050B43136153780F218B4302210B43AF
:1065D000537000BD00400042FFFFFFF010B51824CB
:1065E000021C201C5043274B1818007A40B201307F
:1065F00046D0032944D8081C211C01F079FE02333F
:106600001121624398569A18C3011F4852681B18FB
:1066100099184031022008700121914059602FE003
:106620006243985618499A185268C3015B18991822
:1066300040310620087001219140596099611FE0A6
:1066400051435A56104859184B68D2011118C818AE
:106650004030062404700120984048600B495218CD
:1066600050600DE0624398569A18C301064852687C
:106670001B1899184031022008700121914099603F
:1066800010BDC04628D20000004400411044004123
:1066900018235843134AF0B5131808241C57013423
:1066A0001FD08256104ED2015D6801249019231C20
:1066B0008668AB401E420BD10E1C771EBE414019AE
:1066C00034404030A50004780426B4432C430470C1
:1066D000002903D105495218536002E0024E921975
:1066E0009361F0BD28D200000044004110440041F5
:1066F00018224243F8B52D4D0824AA181457031C3C
:10670000621C50D0481C00240C284CD801F0F0FD2D
:10671000071E1E1E1E1E1E1E1E0A0A0A0A00012435
:10672000644240E0092902D1181C002103E00A2933
:1067300004D1181C0221FFF751FF23E000240B298C
:1067400031D1181C0121FFF749FF2CE018225343D7
:10675000EA185268EB560120141C04405508DB016E
:10676000002C11D0124C1B195D1930352E780C01FC
:106770000F21314021439A18C9B229704032137851
:106780001843107000240EE0094E0F279B195D1965
:1067900030352E789A18BE433143C9B22970403241
:1067A000137818431070201CF8BDC04628D2000092
:1067B00000440041F7B5002401900D1C261C019AED
:1067C000281C131919790A2200F035F92E21071C0B
:1067D000281C00F0B7F80134C719F619032CEED1C4
:1067E000019B281CD9790A2200F025F93018FEBD3A
:1067F000024B0833036000234360704748D6000013
:1068000030B503AC044D2478083505600171427140
:106810008371C47130BDC04648D60000024B416050
:10682000083303607047C04648D60000002230B5E8
:10683000131C051C0C78002C16D0201C303801319C
:10684000092807D80A204343303B1B199BB2FF2B72
:10685000F0D90FE02E2C0DD1032A0BD0501CAA1812
:106860001371C2B20023E5E7201C032A03D1EB71A8
:10687000012000E0002030BD41607047044A054B14
:1068800008321A6000221A715A719A71DA717047CF
:1068900048D60000BC0C00207047000010B5FFF780
:1068A000F7FD03F0FBFBFFF7F7FF0120FFF766FCA6
:1068B000084C201C00F0A6FE201C00F01BFFFBF77C
:1068C00023FDFBF7B7FC044B002BFAD000E000BF20
:1068D000F7E7C0468F11002000000000F7B58A18C6
:1068E000061C0D1C01920C1C019B671B9C4207D0CF
:1068F000336821781B68301C984701340028F3D195
:10690000381CFEBD08B50368C9B21B68984708BDAE
:1069100038B5051C0C1C081E07D003F013FD2B68AE
:10692000021C5B68281C211C984738BD10B5046800
:106930000B1C9A6809686368984710BD08B5FFF793
:10694000E7FF08BD08B503681B68984708BD10B588
:106950000A68041C1268081C211C904710BD000026
:1069600008B50249FFF7D4FF08BDC046D0D10000EA
:1069700038B5041CFFF7CCFF051C201CFFF7F0FF07
:10698000281838BD38B5041CFFF7E1FF051C201C92
:10699000FFF7E6FF401938BDF0B58DB0161C0BAB04
:1069A000002201900C1C1A70012E00D80A266D4698
:1069B0002B35201C311C01F0E9FC201CCFB2311C0E
:1069C00001F0A0FC291C041C092F01D8303700E07D
:1069D0003737FFB22F70013D002CEAD10198FFF745
:1069E00097FF0DB0F0BDF8B5041C0D1C161E04D1A8
:1069F0000368C9B21B68984712E00A2A0DD1002922
:106A00000ADA2D21FFF79EFF6942071C321C201C69
:106A1000FFF7C2FFC01903E000E0D2B2FFF7BCFFEE
:106A2000F8BD08B5002A02D1FFF76CFF02E0D2B230
:106A3000FFF7B2FF08BD08B5FFF7F3FF08BD000080
:106A4000014B18607047C04640000020024B0122F5
:106A500052421A607047C04640000020154A136831
:106A6000581C25D0013B1360002B21D172B6124A6D
:106A7000124B04329A4207D8BFF34F8F104A114B82
:106A8000DA60BFF34F8F11E00F4B197DC807FBD5BC
:106A9000188B2021FF319208520001431983DA61DB
:106AA0000A4A1A801A7DD107FCD5E5E7C046FDE702
:106AB0007047C04640000020002000000302000094
:106AC0000400FA0500ED00E00040004102A5FFFFD0
:106AD00001607047F7B508AC267804689D1E2768EA
:106AE0006C1EA541ECB2920705683A4327063A436B
:106AF0002A600268072529405068B501002C00D0A3
:106B00005C03294301430C435460F7BD30B503686F
:106B1000C0251C68AD0312052A402243C024A402EC
:106B2000090421401143196003685A6814435C60EA
:106B300030BD036801211A680A431A6002681168AF
:106B400001231942FBD1D1691942F8D1704703687A
:106B500002211A680A431A600268D3699907FCD4B3
:106B6000704703681A7ED10702D41A7E9107FCD5BC
:106B70007047036800225A8370470368187E4007F5
:106B8000C00F70470368187EC009704703688022F1
:106B9000197E52420A431A7670470368188DC0B2B4
:106BA000704703681A7E01200242FBD019857047A6
:106BB00070B5036801268D07ED0F31401C686D0725
:106BC000090729432143196004685100034801F073
:106BD00099FB0138C0B2207370BDC046006CDC0266
:106BE000036801211A680A431A60026811680123C8
:106BF0001942FBD1D1691942F8D1704703680221CB
:106C00001A680A431A600268D3699907FCD470476E
:106C1000036802211A688A431A600268D3699907D7
:106C2000FCD4704703689A6A520A5202114399626F
:106C300003681A7E5107FCD5986AC0B270470000FD
:106C40000368224A30B5934211D0214A934211D0B1
:106C5000204A934211D0204A934211D01F4A9342B6
:106C600011D01F4A934230D10E2319220DE009237F
:106C700014220AE00A23152207E00B23162204E05F
:106C80000C23172201E00D231822DCB21549012044
:106C90009B08A0409B0008605B180320C02189006E
:106CA00004405D58E000FF248440A5432C1CC0250F
:106CB0008540281C204358508023DB011A430A4B8F
:106CC0005A805A7852B2002AFBDB30BD00080042DD
:106CD000000C004200100042001400420018004264
:106CE000001C004200E100E0000C0040F8B5041C6C
:106CF000151C0E1C1F1CFFF7A3FF201CFFF719FF1C
:106D0000B1001C220A4069072368090C0A431A6073
:106D1000226884239375012E1AD10821012D00D1F8
:106D200010210C4B79431868C00001F0EBFA23687E
:106D300007219A890140D2044903D20C0A439A815F
:106D400023680004C20C9889400B400310439881CB
:106D5000F8BDC0463C000020F7B5019308AB041C09
:106D60001F780D1C161CFFF73BFF201CFFF768FF68
:106D7000BF070C221743C022920336051640C022DB
:106D800092022D0423683E430199154035430722A2
:106D90001D600A408021236889020A435A60F7BDBA
:106DA0000120704708B503681322DB69984708BDC6
:106DB00010B5041C0069FFF7BCFE201C143001F064
:106DC000DEF910BD08B50069FFF7CBFE08BD08B5B8
:106DD000143001F0EFF908BD08B5143001F0F3F9F3
:106DE00008BD08B5143001F0D1F908BD08B5006937
:106DF000FFF7D7FE012008BDF7B51D1C08AB1B78B7
:106E0000041C009309AB1B78161C019300234360FC
:106E1000FA239B008360094B0F1C08330360143076
:106E200001F08EF9009A231CC03327619A70019AF1
:106E30001E705D70201CDA70FEBDC04668D6000072
:106E400010B5041C0069FFF798FE002807D02069E0
:106E5000FFF7A3FE011C201C143001F07EF920690D
:106E6000FFF790FE002805D02069FFF78FFE20690C
:106E7000FFF77FFE10BDF023081C18403038434256
:106E800058417047F0231B01194080239B00994211
:106E90000CD0C0239B00994206D080235B000520C4
:106EA000994204D0002002E0072000E0062070474D
:106EB0000F231940012905D002394B424B410220D2
:106EC000C01A00E000207047F0B5031C85B00391A4
:106ED000C033041C182718783B1C43431B4E082161
:106EE000F3185956151CFFF703FC231CC1331878FF
:106EF00008214743F6197156FFF7FAFB01210A1CD6
:106F0000039B2069FFF7F2FE291C201CFFF7BAFF44
:106F1000291C071C201CFFF7CBFF291C061C201C6A
:106F2000FFF7A9FF391C0090331C20690122FFF7ED
:106F3000D1FD231CC3331978013B1A782069FFF770
:106F4000E5FD2069FFF703FE05B0F0BD28D2000083
:106F500010B5041C006803F0D1F8201C10BD10B55A
:106F6000041C0068002801D003F0C8F80023236047
:106F7000A360636010BD38B5041C0D1C00680131AE
:106F800003F08CF9002801D021C4012038BD03682A
:106F900010B5041C002B02D043688B4209D2201C80
:106FA000FFF7E9FF002805D0A368002B01D1226874
:106FB0001370012010BD70B50E1C111C041C151C93
:106FC000FFF7E5FF002803D1201CFFF7C8FF04E00E
:106FD000A5602068311C03F0ADF9201C70BD38B5E8
:106FE0000023041C0D1C036043608360994207D09A
:106FF000081C03F0A7F9291C021C201CFFF7DBFF6B
:10700000201C38BD70B50E1C111C041C151CFFF78C
:10701000BEFF002803D1201CFFF7A1FF04E0A560FC
:107020002068311C03F086F9201C70BD38B5041CA3
:107030000D1E08D0081C03F085F9291C021C201C19
:10704000FFF7E0FF01E0FFF78AFF201C38BD10B515
:107050000023041C036043608360FFF7E7FF201CEC
:1070600010BD3F20704713B502686B46D9710733D6
:107070005468191C0122A04716BD08B500690221F9
:1070800000F03CFC08BD08B50069032100F04CFC91
:1070900008BD38B50D1C041C131C006903212A1CF3
:1070A00000F03EFD002801D10123636038BD0000DF
:1070B00010B5054C23685A1C04D10368DB68984757
:1070C0002060031C181C10BD94000020074A08B55E
:1070D0001368591C04D0012149421160181C03E0B7
:1070E0000069022100F00EFD08BDC046940000209A
:1070F00008B503780349023303704222024800F0C6
:10710000C5FD08BD500000208F11002010B501788A
:10711000031C42780020A12908D1212A2FD1184828
:107120001849072200F0B2FD012028E0212926D1CC
:10713000202A05D113490722114800F03BFC04E046
:10714000222A10D19A780F4BDA710E4B96221968C9
:10715000D200914210D1DC7901231C400CD1FA20DD
:10716000FFF76EFC0AE0232A09D1DA789B78120235
:107170001A43054B1A6002E0FFF768FC002010BDBF
:107180008F110020440000204C00002070470000B8
:1071900010B5FEF7EDFFF423FF330024984207D922
:1071A000044B0A20DC79631E9C41E4B2FEF7E6FF43
:1071B000201C10BD44000020064BFA218900996074
:1071C000054900220831196004495A6019611A768C
:1071D0007047C046C40C002098D600008F110020D4
:1071E00070B5C2B219495301CB189E68184DC0241E
:1071F0002E40A40526439E60164E80010968301873
:10720000083258605201505C0726B04301263043D3
:1072100050549E6935402C439C610F4C5C61505C1E
:107220007024A0431024204350549C680B488A18B3
:107230002040802464032043986098684021800B9C
:107240008003986053790B43537170BD98110020EF
:10725000FFFFFF8FB00F0020EC0D0020FF3F00F07C
:1072600038B5041C08CC01211A78051C0A431A7091
:107270008022201C0021520002F06CFF2B689A78BB
:10728000D107FCD45C6238BD134BF0B51B68990381
:107290005A029B01C90ED20E5B0F1F2900D1052196
:1072A0001F2A00D11D22072B00D1032304688E0161
:1072B000278D0A491F2539403143218501682A401D
:1072C0000C8DAC4322430A8502681903108D044BD0
:1072D00003400B431385F0BD246080003FF8FFFF9F
:1072E000FF8FFFFFEFF3108303600123436072B64B
:1072F00070470368002B02D162B6BFF36F8F7047EF
:1073000037B50569041C6846002D12D1FFF7EAFF66
:10731000019B013B03D3621DD57FEDB2F9E76846BF
:107320000193FFF7E6FF0020854217D0206AE3694A
:1073300013E0FFF7D7FF019B0025013B04D3221C7C
:1073400034321578EDB2F8E768460193FFF7D1FFC4
:107350000020854202D0206BE36AC01A3EBD0000C7
:10736000436810B51A68037A01215B01D318FF3313
:107370009A7A0A439A72037A42685B01D318C26808
:107380009C6891040B4A090922400A439A60037AD7
:1073900042685B01D3189A684021920B92039A606D
:1073A00043681A68037A08335B01D3181A790A43D1
:1073B0001A7110BDFF3F00F0F7B50569041C0E1CE3
:1073C000171C6846002D1FD1FFF78CFF019B013B66
:1073D0005A1C06D0621DD17F5A1E00293AD0131CB8
:1073E000F6E768460193FFF784FF0025E369BD4295
:1073F00035D0226A934232D25A1CE261A269D31874
:107400001B7873550135F1E7FFF76CFF019B013BDA
:107410005A1C08D0221C343215785A1EEDB2002DA9
:1074200018D0131CF4E768460193FFF762FF0025AC
:10743000E36ABD4226D0226B934241D322E0621D13
:107440000021D17730321678581E8E4214D1031C99
:107450005A1CF4D168460193FFF74BFF38E0226ACB
:10746000934235D10023E361012323616846FFF78E
:1074700039FF019B013BEBE71170201C0193FFF7E3
:107480006FFFF6E7226B934222D10023E362236170
:107490006846FFF727FF019B013B5A1CDAD0221CEC
:1074A00034320021117001321678581E8E4201D1FB
:1074B000031CF2E71170201C0193FFF751FFEAE76C
:1074C0005A1CE262A26AD3181B7873550135AFE7E4
:1074D000281CFEBD37B54368027A1B68083252018A
:1074E0009A18041CD0790123FF21184253D0D3717C
:1074F000A068656962680140002D20D149015218D9
:10750000916863618904890C2162A16A68465160AF
:10751000621DD377FFF7E6FE019B013B5A1C33D077
:10752000221C34321178581EC9B20132002903D00E
:1075300001930123137023E01170031CEEE74B014C
:10754000D3189A68A5699204920C226300226261A2
:1075500068465D60FFF7C6FE019B013B01E01170CC
:107560002B1C591C10D0221C343201201070621DBB
:10757000D17F5D1EC9B230320029F0D00193107066
:107580006846FFF7B6FE06E068460193FFF7B1FED6
:10759000201CFFF7E5FE37BD37B500236C46E371CD
:1075A0000734201C0D1CFFF7A3FD2B68181828605A
:1075B00000F05CFE211C00F013FE2B6818182860F8
:1075C00020783EBD03290BD10D4BB2221B6852001F
:1075D000985C8021494201439954022168220CE0C1
:1075E00001290CD1064B92221B685200985C802125
:1075F00049420143995402212822FF32995470478D
:107600009811002038B5304B00240121051C1A20A8
:107610001C70FEF7E3FF1A200121FFF739F82B4B0E
:10762000192001211C70FEF7D9FF19200121FFF755
:107630002FF8274B2021DA6901200A43DA61254B14
:1076400006241A7802431A70234B0F2219789143AB
:10765000197019782143197020490C78204308705B
:1076600019780A401A701A7860210A431A701C4B64
:107670001C4A5A805A78D209FCD11B48FEF772FD89
:107680001A4C201CFFF7ECFD201CFFF7FDFD2368C2
:107690007F2219780A401A701A7804210A431A7056
:1076A0001A890C218A431A81C121114A8900505834
:1076B0000002000A5050802111601A7802210A430A
:1076C0001A7001232B7038BDAC0F002094110020DC
:1076D00000040040584400413C44004159440041EA
:1076E000000C0040064000001981000098110020A5
:1076F00000E100E00078002810D0094B01211B6850
:107700001A898A431A811A8B08210A431A831A8B11
:1077100004210A431A83034B00221A607047C046B3
:10772000981100209C1200200F4B9A69920B920333
:107730009A611B680222FF331A72987980225242A2
:1077400002439A711A7A9007FCD5084B081C997A63
:107750007F221040914301439972997A80225242CC
:107760000A439A727047C0469811002000500041A9
:1077700010B50B790C1C002B0BD1081CFFF7C6FCB5
:10778000002804D1094B9A69920B92039A61012057
:107790000BE000F06BFD211C00F056FD0028F6D137
:1077A000024B9A69920B92039A6110BD98110020C6
:1077B000F8B50D1C832A16D1CAB242495301CB1821
:1077C0009C694148AD012040C024A4052043986134
:1077D0003E48083245195D610B685201D15C70204A
:1077E0008143402065E0022A45D1382000F0A4FC06
:1077F000374B344F8026036076000023421D03621E
:1078000003614361C36147608560C660D3772F32EF
:10781000041CC36203631370301C537002F064FCD9
:10782000A061301C02F060FCFF232A1C1A405201A8
:10783000A062BF18B968244A07260A40C0218905FA
:107840000A43BA60A16862681940126808314901A8
:10785000885CAD00B043032630438854A168626859
:107860000B405B01A169D3185960201CFFF778FD1C
:10787000184BEC5025E0822A1ED1CAB2114953019F
:10788000CB189C691048AD012040C024A4052043BA
:1078900098610E48083245195D610B6852019918CC
:1078A0000C798020404220430871D15C70208143D4
:1078B00030200143D15404E0002A02D1081CFFF714
:1078C0008FFCF8BD98110020FFFFFF8FEC0D00200A
:1078D000C8D600007011002038B5051C0124064BE5
:1078E000A200D258002A06D0211C281C0134FFF720
:1078F0005FFFE4B2F3E738BD9800002008B5084BFD
:107900008A00D058002803D003689B68984706E097
:10791000C9B2044B4901591888688004800C08BD1D
:10792000701100209811002010B50C1CFFF7E6FF25
:1079300000280CD0064BE1B21B68083149015918E8
:107940004A7980235B4213434B710223CB7110BDF4
:107950009811002070B5CAB2134B14485401890124
:107960005918031959609D6811490832294080252A
:10797000AD022943996099684026890B8903996073
:107980000368510159180D7935430D71510159188A
:1079900089794D06FAD551015918C979CD07FAD51B
:1079A0000419A068C0B270BDB00F0020981100206B
:1079B000FF3F00F038B50C4B141C1B680D1CFF3347
:1079C0005A7940210A435A710021FFF7C3FFA042B0
:1079D00000D9201C0023A34204D0044A9A5CEA5434
:1079E0000133F8E738BDC04698110020B00F0020E1
:1079F00010B5C9B20C48490143189A689204920C18
:107A00003F2A08D9141C9A68403CA404920BA40C89
:107A10009203224302E09A68920B92039A60411803
:107A20008868C0B210BDC04698110020F0B51C1C7B
:107A30002F4B85B01B68061C0D1C0292002B51D0E9
:107A40002C4F3978C9B2002902D11920FEF720FE47
:107A500064233B70284BAA00D058002805D0036847
:107A600002995B68221C984740E0301C291CFFF7F4
:107A700045FFA04204D2301C291CFFF73FFF041C25
:107A8000291C301CFFF7B4FF1C4FE9B24A010191D9
:107A9000396803928B18FF335A7A01210A43184937
:107AA0005A72AB01C9180298221C02F031FB002C5B
:107AB0001BD0301C291CFFF721FF002815D1019B8A
:107AC0003A6808335B01D3181979402001431971D2
:107AD0000121D97103995318FF339A7A01210A437E
